{
  "_format": "hh3-artifact-1",
  "contractName": "Factory",
  "sourceName": "contracts/Factory.sol",
  "abi": [
    {
      "anonymous": false,
      "inputs": [
        {
          "indexed": true,
          "internalType": "address",
          "name": "token0",
          "type": "address"
        },
        {
          "indexed": true,
          "internalType": "address",
          "name": "token1",
          "type": "address"
        },
        {
          "indexed": false,
          "internalType": "address",
          "name": "pool",
          "type": "address"
        },
        {
          "indexed": false,
          "internalType": "uint256",
          "name": "poolIndex",
          "type": "uint256"
        }
      ],
      "name": "PoolCreated",
      "type": "event"
    },
    {
      "inputs": [
        {
          "internalType": "uint256",
          "name": "",
          "type": "uint256"
        }
      ],
      "name": "allPools",
      "outputs": [
        {
          "internalType": "address",
          "name": "",
          "type": "address"
        }
      ],
      "stateMutability": "view",
      "type": "function"
    },
    {
      "inputs": [],
      "name": "allPoolsLength",
      "outputs": [
        {
          "internalType": "uint256",
          "name": "",
          "type": "uint256"
        }
      ],
      "stateMutability": "view",
      "type": "function"
    },
    {
      "inputs": [
        {
          "internalType": "address",
          "name": "tokenA",
          "type": "address"
        },
        {
          "internalType": "address",
          "name": "tokenB",
          "type": "address"
        }
      ],
      "name": "createPool",
      "outputs": [
        {
          "internalType": "address",
          "name": "pool",
          "type": "address"
        }
      ],
      "stateMutability": "nonpayable",
      "type": "function"
    },
    {
      "inputs": [
        {
          "internalType": "address",
          "name": "tokenA",
          "type": "address"
        },
        {
          "internalType": "address",
          "name": "tokenB",
          "type": "address"
        }
      ],
      "name": "getPool",
      "outputs": [
        {
          "internalType": "address",
          "name": "pool",
          "type": "address"
        }
      ],
      "stateMutability": "view",
      "type": "function"
    },
    {
      "inputs": [
        {
          "internalType": "address",
          "name": "",
          "type": "address"
        },
        {
          "internalType": "address",
          "name": "",
          "type": "address"
        }
      ],
      "name": "pools",
      "outputs": [
        {
          "internalType": "address",
          "name": "",
          "type": "address"
        }
      ],
      "stateMutability": "view",
      "type": "function"
    }
  ],
  "bytecode": "0x6080604052348015600e575f5ffd5b506125ae8061001c5f395ff3fe608060405234801561000f575f5ffd5b5060043610610055575f3560e01c806341d1de9714610059578063531aa03e14610089578063901754d71461009c578063e3433615146100cc578063efde4e64146100df575b5f5ffd5b61006c61006736600461044e565b6100f0565b6040516001600160a01b0390911681526020015b60405180910390f35b61006c610097366004610480565b610118565b61006c6100aa366004610480565b5f6020818152928152604080822090935290815220546001600160a01b031681565b61006c6100da366004610480565b610154565b600154604051908152602001610080565b600181815481106100ff575f80fd5b5f918252602090912001546001600160a01b0316905081565b5f5f5f6101258585610411565b6001600160a01b039182165f908152602081815260408083209385168352929052205416925050505b92915050565b5f816001600160a01b0316836001600160a01b0316036101bb5760405162461bcd60e51b815260206004820152601960248201527f466163746f72793a206964656e746963616c20746f6b656e730000000000000060448201526064015b60405180910390fd5b6001600160a01b038316158015906101db57506001600160a01b03821615155b61021f5760405162461bcd60e51b8152602060048201526015602482015274466163746f72793a207a65726f206164647265737360581b60448201526064016101b2565b5f5f61022b8585610411565b6001600160a01b038083165f90815260208181526040808320848616845290915290205492945090925016156102a35760405162461bcd60e51b815260206004820152601c60248201527f466163746f72793a20706f6f6c20616c7265616479206578697374730000000060448201526064016101b2565b5f604051806040016040528060088152602001672628102a37b5b2b760c11b81525090505f6040518060400160405280600281526020016104c560f41b81525090505f848484846040516102f690610441565b61030394939291906104df565b604051809103905ff08015801561031c573d5f5f3e3d5ffd5b506001600160a01b038087165f818152602081815260408083208a861680855290835281842080549688166001600160a01b031997881681179091558484528285208686529093529083208054861683179055600180548082018255938190527fb10e2d527612073b26eecdfd717e6a320cf44b4afac2b0732d9fcbe2b7fa0cf690930180549095169091179093558054939950899450919290917febbbe9dc3a19d2f959ac76ac0372b4983cdfb945f5d6aef4873c36fabb2ba8aa9185916103e491610527565b604080516001600160a01b03909316835260208301919091520160405180910390a3505050505092915050565b5f5f826001600160a01b0316846001600160a01b031610610433578284610436565b83835b909590945092505050565b6120328061054783390190565b5f6020828403121561045e575f5ffd5b5035919050565b80356001600160a01b038116811461047b575f5ffd5b919050565b5f5f60408385031215610491575f5ffd5b61049a83610465565b91506104a860208401610465565b90509250929050565b5f81518084528060208401602086015e5f602082860101526020601f19601f83011685010191505092915050565b6001600160a01b038581168252841660208201526080604082018190525f9061050a908301856104b1565b828103606084015261051c81856104b1565b979650505050505050565b8181038181111561014e57634e487b7160e01b5f52601160045260245ffdfe608060405234801561000f575f5ffd5b5060405161203238038061203283398101604081905261002e91610248565b6001600160a01b0384161580159061004e57506001600160a01b03831615155b6100945760405162461bcd60e51b8152602060048201526012602482015271506f6f6c3a207a65726f206164647265737360701b60448201526064015b60405180910390fd5b826001600160a01b0316846001600160a01b0316036100f55760405162461bcd60e51b815260206004820152601660248201527f506f6f6c3a206964656e746963616c20746f6b656e7300000000000000000000604482015260640161008b565b5f80546001600160a01b038087166001600160a01b03199283161790925560018054928616929091169190911790556040518290829061013490610183565b61013f9291906102fc565b604051809103905ff080158015610158573d5f5f3e3d5ffd5b50600280546001600160a01b0319166001600160a01b03929092169190911790555061032992505050565b610c8b806113a783390190565b80516001600160a01b03811681146101a6575f5ffd5b919050565b634e487b7160e01b5f52604160045260245ffd5b5f82601f8301126101ce575f5ffd5b81516001600160401b038111156101e7576101e76101ab565b604051601f8201601f19908116603f011681016001600160401b0381118282101715610215576102156101ab565b60405281815283820160200185101561022c575f5ffd5b8160208501602083015e5f918101602001919091529392505050565b5f5f5f5f6080858703121561025b575f5ffd5b61026485610190565b935061027260208601610190565b60408601519093506001600160401b0381111561028d575f5ffd5b610299878288016101bf565b606087015190935090506001600160401b038111156102b6575f5ffd5b6102c2878288016101bf565b91505092959194509250565b5f81518084528060208401602086015e5f602082860101526020601f19601f83011685010191505092915050565b604081525f61030e60408301856102ce565b828103602084015261032081856102ce565b95945050505050565b611071806103365f395ff3fe608060405234801561000f575f5ffd5b50600436106100cb575f3560e01c80639c8f9f2311610088578063ba9a7a5611610063578063ba9a7a56146101b4578063bf333f2c146101bd578063d21220a7146101c5578063d2be3ee0146101d8575f5ffd5b80639c8f9f23146101605780639cd441da14610173578063afd56315146101a1575f5ffd5b8063054d50d4146100cf5780630902f1ac146100f55780630dfe168114610111578063443cb4bc1461013b5780635a76f25e146101445780635fcbd2851461014d575b5f5ffd5b6100e26100dd366004610ecd565b6101eb565b6040519081526020015b60405180910390f35b6003546004545b604080519283526020830191909152016100ec565b5f54610123906001600160a01b031681565b6040516001600160a01b0390911681526020016100ec565b6100e260035481565b6100e260045481565b600254610123906001600160a01b031681565b6100fc61016e366004610ef6565b6102c4565b610186610181366004610f0d565b6105d9565b604080519384526020840192909252908201526060016100ec565b6100e26101af366004610f0d565b610a9b565b6100e26103e881565b6100e2601e81565b600154610123906001600160a01b031681565b6100e26101e6366004610f0d565b610c82565b5f5f84116102145760405162461bcd60e51b815260040161020b90610f2d565b60405180910390fd5b5f8311801561022257505f82115b61026e5760405162461bcd60e51b815260206004820152601c60248201527f506f6f6c3a20696e73756666696369656e74206c697175696469747900000000604482015260640161020b565b5f61027c601e612710610f78565b6102869086610f91565b90505f6102938285610f91565b90505f826102a387612710610f91565b6102ad9190610fa8565b90506102b98183610fbb565b979650505050505050565b5f5f5f83116103155760405162461bcd60e51b815260206004820152601c60248201527f506f6f6c3a20696e73756666696369656e74204c5020616d6f756e7400000000604482015260640161020b565b600254604080516318160ddd60e01b815290515f926001600160a01b0316916318160ddd9160048083019260209291908290030181865afa15801561035c573d5f5f3e3d5ffd5b505050506040513d601f19601f820116820180604052508101906103809190610fda565b905080600354856103919190610f91565b61039b9190610fbb565b925080600454856103ac9190610f91565b6103b69190610fbb565b91505f831180156103c657505f82115b61041e5760405162461bcd60e51b815260206004820152602360248201527f506f6f6c3a20696e73756666696369656e7420616d6f756e74732072657475726044820152621b995960ea1b606482015260840161020b565b600254604051632770a7eb60e21b8152336004820152602481018690526001600160a01b0390911690639dc29fac906044015f604051808303815f87803b158015610467575f5ffd5b505af1158015610479573d5f5f3e3d5ffd5b505050508260035f82825461048e9190610f78565b925050819055508160045f8282546104a69190610f78565b90915550505f5460405163a9059cbb60e01b8152336004820152602481018590526001600160a01b039091169063a9059cbb906044016020604051808303815f875af11580156104f8573d5f5f3e3d5ffd5b505050506040513d601f19601f8201168201806040525081019061051c9190610ff1565b5060015460405163a9059cbb60e01b8152336004820152602481018490526001600160a01b039091169063a9059cbb906044016020604051808303815f875af115801561056b573d5f5f3e3d5ffd5b505050506040513d601f19601f8201168201806040525081019061058f9190610ff1565b50604080518481526020810184905290810185905233907f1dc8bb69df2b8e91fbdcbfcf93d951b3f0000f085a95fe3f7946d6161439245d9060600160405180910390a250915091565b5f5f5f5f851180156105ea57505f84115b6106365760405162461bcd60e51b815260206004820152601a60248201527f506f6f6c3a20696e73756666696369656e7420616d6f756e7473000000000000604482015260640161020b565b600254604080516318160ddd60e01b815290515f926001600160a01b0316916318160ddd9160048083019260209291908290030181865afa15801561067d573d5f5f3e3d5ffd5b505050506040513d601f19601f820116820180604052508101906106a19190610fda565b9050805f03610797578593508492506106c26106bd8486610f91565b610e5f565b91506103e882116107215760405162461bcd60e51b8152602060048201526024808201527f506f6f6c3a20696e73756666696369656e7420696e697469616c206c697175696044820152636469747960e01b606482015260840161020b565b6002546040516340c10f1960e01b8152600160048201526103e860248201526001600160a01b03909116906340c10f19906044015f604051808303815f87803b15801561076c575f5ffd5b505af115801561077e573d5f5f3e3d5ffd5b505050506103e8826107909190610f78565b915061087f565b5f600354600454886107a99190610f91565b6107b39190610fbb565b90508581116107c757869450809350610833565b5f600454600354886107d99190610f91565b6107e39190610fbb565b90508781111561082d5760405162461bcd60e51b8152602060048201526015602482015274506f6f6c3a20696e76616c696420616d6f756e747360581b604482015260640161020b565b94508593505b6003545f906108428488610f91565b61084c9190610fbb565b90505f600454848761085e9190610f91565b6108689190610fbb565b90508082106108775780610879565b815b94505050505b5f82116108da5760405162461bcd60e51b815260206004820152602360248201527f506f6f6c3a20696e73756666696369656e74206c6971756964697479206d696e6044820152621d195960ea1b606482015260840161020b565b5f546040516323b872dd60e01b81526001600160a01b03909116906323b872dd9061090d90339030908990600401611017565b6020604051808303815f875af1158015610929573d5f5f3e3d5ffd5b505050506040513d601f19601f8201168201806040525081019061094d9190610ff1565b506001546040516323b872dd60e01b81526001600160a01b03909116906323b872dd9061098290339030908890600401611017565b6020604051808303815f875af115801561099e573d5f5f3e3d5ffd5b505050506040513d601f19601f820116820180604052508101906109c29190610ff1565b508360035f8282546109d49190610fa8565b925050819055508260045f8282546109ec9190610fa8565b90915550506002546040516340c10f1960e01b8152336004820152602481018490526001600160a01b03909116906340c10f19906044015f604051808303815f87803b158015610a3a575f5ffd5b505af1158015610a4c573d5f5f3e3d5ffd5b505060408051878152602081018790529081018590523392507f64b83944e79c3ce8d4c297411de637c3e102d064677aac0c163976ebdcd6f50e915060600160405180910390a2509250925092565b5f5f8311610abb5760405162461bcd60e51b815260040161020b90610f2d565b610aca836003546004546101eb565b905081811015610b165760405162461bcd60e51b8152602060048201526017602482015276141bdbdb0e881cdb1a5c1c1859d948195e18d959591959604a1b604482015260640161020b565b5f546040516323b872dd60e01b81526001600160a01b03909116906323b872dd90610b4990339030908890600401611017565b6020604051808303815f875af1158015610b65573d5f5f3e3d5ffd5b505050506040513d601f19601f82011682018060405250810190610b899190610ff1565b5060015460405163a9059cbb60e01b8152336004820152602481018390526001600160a01b039091169063a9059cbb906044016020604051808303815f875af1158015610bd8573d5f5f3e3d5ffd5b505050506040513d601f19601f82011682018060405250810190610bfc9190610ff1565b508260035f828254610c0e9190610fa8565b925050819055508060045f828254610c269190610f78565b90915550506001545f5460408051868152602081018590526001600160a01b03938416939092169133917f5380cf97d8f645d3c4896da60c053458dca03a3a31cec642ac80e1ddf0d8d02a91015b60405180910390a492915050565b5f5f8311610ca25760405162461bcd60e51b815260040161020b90610f2d565b610cb1836004546003546101eb565b905081811015610cfd5760405162461bcd60e51b8152602060048201526017602482015276141bdbdb0e881cdb1a5c1c1859d948195e18d959591959604a1b604482015260640161020b565b6001546040516323b872dd60e01b81526001600160a01b03909116906323b872dd90610d3190339030908890600401611017565b6020604051808303815f875af1158015610d4d573d5f5f3e3d5ffd5b505050506040513d601f19601f82011682018060405250810190610d719190610ff1565b505f5460405163a9059cbb60e01b8152336004820152602481018390526001600160a01b039091169063a9059cbb906044016020604051808303815f875af1158015610dbf573d5f5f3e3d5ffd5b505050506040513d601f19601f82011682018060405250810190610de39190610ff1565b508260045f828254610df59190610fa8565b925050819055508060035f828254610e0d9190610f78565b90915550505f5460015460408051868152602081018590526001600160a01b03938416939092169133917f5380cf97d8f645d3c4896da60c053458dca03a3a31cec642ac80e1ddf0d8d02a9101610c74565b5f6003821115610ebe5750805f610e77600283610fbb565b610e82906001610fa8565b90505b81811015610eb857905080600281610e9d8186610fbb565b610ea79190610fa8565b610eb19190610fbb565b9050610e85565b50919050565b8115610ec8575060015b919050565b5f5f5f60608486031215610edf575f5ffd5b505081359360208301359350604090920135919050565b5f60208284031215610f06575f5ffd5b5035919050565b5f5f60408385031215610f1e575f5ffd5b50508035926020909101359150565b6020808252601f908201527f506f6f6c3a20696e73756666696369656e7420696e70757420616d6f756e7400604082015260600190565b634e487b7160e01b5f52601160045260245ffd5b81810381811115610f8b57610f8b610f64565b92915050565b8082028115828204841417610f8b57610f8b610f64565b80820180821115610f8b57610f8b610f64565b5f82610fd557634e487b7160e01b5f52601260045260245ffd5b500490565b5f60208284031215610fea575f5ffd5b5051919050565b5f60208284031215611001575f5ffd5b81518015158114611010575f5ffd5b9392505050565b6001600160a01b03938416815291909216602082015260408101919091526060019056fea2646970667358221220b4221d3148d601dc8382f404a5ffb1829c7cac587ad81db7a62dfe6c079bed3164736f6c634300081c0033608060405234801561000f575f5ffd5b50604051610c8b380380610c8b83398101604081905261002e91610102565b81815f61003b83826101eb565b50600161004882826101eb565b5050600580546001600160a01b03191633179055506102a5915050565b634e487b7160e01b5f52604160045260245ffd5b5f82601f830112610088575f5ffd5b81516001600160401b038111156100a1576100a1610065565b604051601f8201601f19908116603f011681016001600160401b03811182821017156100cf576100cf610065565b6040528181528382016020018510156100e6575f5ffd5b8160208501602083015e5f918101602001919091529392505050565b5f5f60408385031215610113575f5ffd5b82516001600160401b03811115610128575f5ffd5b61013485828601610079565b602085015190935090506001600160401b03811115610151575f5ffd5b61015d85828601610079565b9150509250929050565b600181811c9082168061017b57607f821691505b60208210810361019957634e487b7160e01b5f52602260045260245ffd5b50919050565b601f8211156101e657805f5260205f20601f840160051c810160208510156101c45750805b601f840160051c820191505b818110156101e3575f81556001016101d0565b50505b505050565b81516001600160401b0381111561020457610204610065565b610218816102128454610167565b8461019f565b6020601f82116001811461024a575f83156102335750848201515b5f19600385901b1c1916600184901b1784556101e3565b5f84815260208120601f198516915b828110156102795787850151825560209485019460019092019101610259565b508482101561029657868401515f19600387901b60f8161c191681555b50505050600190811b01905550565b6109d9806102b25f395ff3fe608060405234801561000f575f5ffd5b50600436106100b1575f3560e01c806340c10f191161006e57806340c10f191461016557806370a082311461017a57806395d89b41146101995780639dc29fac146101a1578063a9059cbb146101b4578063dd62ed3e146101c7575f5ffd5b806306fdde03146100b5578063095ea7b3146100d357806316f0115b146100f657806318160ddd1461012157806323b872dd14610138578063313ce5671461014b575b5f5ffd5b6100bd6101f1565b6040516100ca919061082e565b60405180910390f35b6100e66100e136600461087e565b61027c565b60405190151581526020016100ca565b600554610109906001600160a01b031681565b6040516001600160a01b0390911681526020016100ca565b61012a60025481565b6040519081526020016100ca565b6100e66101463660046108a6565b6102e8565b610153601281565b60405160ff90911681526020016100ca565b61017861017336600461087e565b61039d565b005b61012a6101883660046108e0565b60036020525f908152604090205481565b6100bd610405565b6101786101af36600461087e565b610412565b6100e66101c236600461087e565b610476565b61012a6101d5366004610900565b600460209081525f928352604080842090915290825290205481565b5f80546101fd90610931565b80601f016020809104026020016040519081016040528092919081815260200182805461022990610931565b80156102745780601f1061024b57610100808354040283529160200191610274565b820191905f5260205f20905b81548152906001019060200180831161025757829003601f168201915b505050505081565b335f8181526004602090815260408083206001600160a01b038716808552925280832085905551919290917f8c5be1e5ebec7d5bd14f71427d1e84f3dd0314c0f7b2291e5b200ac8c7c3b925906102d69086815260200190565b60405180910390a35060015b92915050565b6001600160a01b0383165f908152600460209081526040808320338452909152812054828110156103605760405162461bcd60e51b815260206004820152601d60248201527f45524332303a20696e73756666696369656e7420616c6c6f77616e636500000060448201526064015b60405180910390fd5b6001600160a01b0385165f9081526004602090815260408083203384529091529020838203905561039285858561048b565b506001949350505050565b6005546001600160a01b031633146103f75760405162461bcd60e51b815260206004820152601f60248201527f4c50546f6b656e3a2063616c6c6572206973206e6f742074686520706f6f6c006044820152606401610357565b6104018282610616565b5050565b600180546101fd90610931565b6005546001600160a01b0316331461046c5760405162461bcd60e51b815260206004820152601f60248201527f4c50546f6b656e3a2063616c6c6572206973206e6f742074686520706f6f6c006044820152606401610357565b61040182826106f3565b5f61048233848461048b565b50600192915050565b6001600160a01b0383166104eb5760405162461bcd60e51b815260206004820152602160248201527f45524332303a207472616e736665722066726f6d207a65726f206164647265736044820152607360f81b6064820152608401610357565b6001600160a01b0382166105415760405162461bcd60e51b815260206004820152601f60248201527f45524332303a207472616e7366657220746f207a65726f2061646472657373006044820152606401610357565b6001600160a01b0383165f908152600360205260409020548111156105a85760405162461bcd60e51b815260206004820152601b60248201527f45524332303a20696e73756666696369656e742062616c616e636500000000006044820152606401610357565b6001600160a01b038084165f81815260036020526040808220805486900390559285168082529083902080548501905591517fddf252ad1be2c89b69c2b068fc378daa952ba7f163c4a11628f55a4df523b3ef906106099085815260200190565b60405180910390a3505050565b6001600160a01b03821661066c5760405162461bcd60e51b815260206004820152601b60248201527f45524332303a206d696e7420746f207a65726f206164647265737300000000006044820152606401610357565b8060025f82825461067d919061097d565b90915550506001600160a01b0382165f90815260036020526040812080548392906106a990849061097d565b90915550506040518181526001600160a01b038316905f907fddf252ad1be2c89b69c2b068fc378daa952ba7f163c4a11628f55a4df523b3ef906020015b60405180910390a35050565b6001600160a01b0382166107495760405162461bcd60e51b815260206004820152601d60248201527f45524332303a206275726e2066726f6d207a65726f20616464726573730000006044820152606401610357565b6001600160a01b0382165f908152600360205260409020548111156107bc5760405162461bcd60e51b815260206004820152602360248201527f45524332303a20696e73756666696369656e742062616c616e636520746f20626044820152623ab93760e91b6064820152608401610357565b6001600160a01b0382165f90815260036020526040812080548390039055600280548392906107ec908490610990565b90915550506040518181525f906001600160a01b038416907fddf252ad1be2c89b69c2b068fc378daa952ba7f163c4a11628f55a4df523b3ef906020016106e7565b602081525f82518060208401528060208501604085015e5f604082850101526040601f19601f83011684010191505092915050565b80356001600160a01b0381168114610879575f5ffd5b919050565b5f5f6040838503121561088f575f5ffd5b61089883610863565b946020939093013593505050565b5f5f5f606084860312156108b8575f5ffd5b6108c184610863565b92506108cf60208501610863565b929592945050506040919091013590565b5f602082840312156108f0575f5ffd5b6108f982610863565b9392505050565b5f5f60408385031215610911575f5ffd5b61091a83610863565b915061092860208401610863565b90509250929050565b600181811c9082168061094557607f821691505b60208210810361096357634e487b7160e01b5f52602260045260245ffd5b50919050565b634e487b7160e01b5f52601160045260245ffd5b808201808211156102e2576102e2610969565b818103818111156102e2576102e261096956fea264697066735822122041b709c8f5a5dff96dce7a8bfd38c459665df6a9a4f47fee1511bcbbc346941a64736f6c634300081c0033a26469706673582212201248fab94930410deb559d33a77820c3085426182adf3cb47faf40dfb760fa5864736f6c634300081c0033",
  "linkReferences": {},
  "deployedLinkReferences": {},
  "immutableReferences": {},
  "inputSourceName": "project/contracts/Factory.sol",
  "buildInfoId": "solc-0_8_28-8a4232e43ef5a912bf5e089dcb3dd3e828b409f8"
}